:060000000A128A11142906
:10000800A000030EA1000B1812280B191A280B11B7
:100018000B10210E8300A00E200E0900861EA216CA
:10002800061F2217861FA2170B1007282314AF0AD2
:0C003800B00AB30AF63081000B11072853
:100200008A010A140F3982073F3406345B344F34B5
:1002100066346D347D3407347F34673477347C340E
:1002200039345E3479347134031383160F168F1604
:100230000F13811281110114811001150313831210
:10024000A8308B008101F6308100031783168801E6
:100250008901031383160030850000308700C03009
:100260008800003089000313831681131517951732
:100270000313831696161617961703138312850118
:100280008601870188018901A301A601A401A701B4
:10029000A801AB01AC01AD01AE01AF01B001B101EC
:1002A000B201B401B501B601B301B701B801B9019A
:1002B000BA01BB01BC01A201BD01A501061C0000E1
:1002C00026140A30B400B500B60025149622DB21AE
:1002D0008221F3212318F029662925180028812975
:1002E000F421C8303302031D7929B40BB50BB60BCA
:1002F000B30106303402031D8129B101B201A417F4
:1003000081290800A4102411A4110800B701B80124
:10031000B901BA01BB01BC013408BD000A30BD02FD
:10032000B70A03188E290A30BD07B70337080F39FB
:100330000021A8000130BD02B80A03189A29013033
:10034000BD07B80338080F390021A7003508BD00E4
:100350000A30BD02B90A0318A8290A30BD07B9033B
:1003600039080F390021AA000130BD02BA0A03186A
:10037000B4290130BD07BA033A080F390021A9009A
:100380003608BD000A30BD02BB0A0318C2290A3074
:10039000BD07BB033B080F390021AC000130BD0293
:1003A000BC0A0318CE290130BD07BC033C080F3935
:1003B0000021AB000800C8303002031DEF29A4144F
:1003C000B001B10A03303102031DEF292415B10138
:1003D000B20A02303202031DEF29A415B20108004F
:1003E000231086214B2A0800A41F102A2419052A4D
:1003F000241A0B2A64302F0203190814C8302F0264
:10040000031908100319AF01102A081008108810EA
:10041000081188142416A41D102A2412A41388106D
:100420000800A41F2D2A2419222AA41A282A64307D
:100430002F0203198815C8302F02031988110319D8
:10044000AF012D2A88118811081288120816A416E7
:10045000A41D2D2AA412A41308120800A41F4A2ABE
:1004600024193F2A241B452A64302F02031909143A
:10047000C8302F02031909100319AF014A2A0910C5
:1004800009108910091189142417A41D4A2A24135C
:10049000A41389100800850187012618652AA6186B
:1004A0006C2A2619732AA6197A2A261A812AA61ACC
:1004B000882A261B8F2AA61B5E2A66292708850004
:1004C00001308700A613261466292808850002300B
:1004D00087002610A61466292908850004308700A5
:1004E000A610261566292A088500083087002611DF
:1004F000A61566292B08850010308700A611261640
:1005000066292C088500203087002612A616662949
:100510002D08850040308700A612261766292E0870
:100520008500803087002613A6176629A21E9B2A05
:10053000B101B201A417221F9D2AA21F9F2AA21255
:060540002213A2130800C3
:04400E00D430FF3F6C
:00000001FF
