:060000000A128A11142906
:10000800A000030EA1000B1812280B191A280B11B7
:100018000B10210E8300A00E200E0900861EA216CA
:10002800061F2217861FA2170B1007282314B00AD1
:0C003800B10AB20AF63081000B11072853
:100200008A010A140F3982073F3406345B344F34B5
:1002100066346D347D3407347F34673477347C340E
:1002200039345E3479347134031383160F168F1604
:100230000F13811281110114811001150313831210
:10024000A8308B008101FA308100031783168801E2
:1002500089010313831600308500061000308700E3
:1002600000308800003089000313831681131517AE
:1002700095170313831696161617961703138312F2
:1002800085018601870188018901A301A601A401D6
:10029000A701A801A901AC01AD01AE01AF01B001F8
:1002A000B101B301B401B501B601B701B801B9019B
:1002B000BA01BB01BC01B201BD01BE01BF01C00159
:1002C000C101C201A201C501A501061C000026143E
:1002D000A5152514A3140A30B700B800B900892267
:1002E0005F2377219021852223189E2A6F29A31846
:1002F000822923198329A3198629231A8929A31A54
:100300008C298F298F293A08A7008F293B08A7003D
:100310008F293C08A7008F290130A7008F290800EA
:100320000030340203199D290030350203199D293C
:100330000030360203199D299E292514251CF12918
:10034000251A572AA518C0292519D829A519A82979
:100350000811081088100811081488110812881252
:10036000881609108910091109153708B4003708D3
:10037000B50038083707B600A511A5142510F129D6
:100380008812881108128812881508108810081120
:100390000815091089100911091538083907B40022
:1003A0003808B5003808B600A51025152510F12924
:1003B0000911091089100911091408108810081171
:1003C000081588110812881288163908B4003908EF
:1003D0003707B5003908B6002511A5152510F129F4
:1003E000842AA518FA292519192AA519382A251A9F
:1003F000572A842AA418B403A418B503A418B60372
:100400000630340203192414241C0F2A241D0F2A39
:10041000081C0E2A08180C2A08100F2A081403308A
:100420003402031D842A241008108810081188142F
:10043000842AA418B403A418B503A418B60306307C
:10044000350203192414241C2E2A241D2E2A88194F
:100450002B2A881D2D2A88112E2A88150330350253
:10046000031D842A24108811081288120816842A71
:10047000A418B403A418B503A418B60306303602B2
:1004800003192414241C4D2A241D4D2A09184A2A14
:10049000091C4C2A09104D2A091403303602031D89
:1004A000842A24100910891009118914842AA51E90
:1004B000702A3A08B7003B08B8003C08B900A510FC
:1004C0002511A511A5122514B301B101B001081021
:1004D0008810081188110812881209108910091152
:1004E000241D7D2A0919762A091D7A2A08118812E5
:1004F00009117D2A081588160915B401B501B60140
:10050000A41D842A2512A5150800A410A4112411E5
:100510000800C8303102031D8F2AA414B1016430D1
:100520003002031D952A2415B001A418B30A033024
:100530003302031D9D2AA415B30108002310EE22E7
:100540008501A61BB62A2618BD2AA618C42A261974
:10055000CB2AA619D22A261AD92AA31CB12AA61751
:100560006F29A61AE02A261BE72A6F29280885008A
:1005700001308700A61326146F2929088500023050
:1005800087002610A6146F292A08850004308700EA
:10059000A61026156F292B08850008308700261124
:1005A000A6156F292C08850010308700A611261685
:1005B0006F292D088500203087002612A6166F2986
:1005C0002E08850040308700A61226176F292F08B5
:1005D0008500803087002613A6176F29BD01BE0154
:1005E000BF01C001C101C201C301C4013408C5007B
:1005F0000A30C502BD0A0318F82A0A30C507BD0330
:100600003D080F390021A9000130C502BE0A0318B8
:10061000042B0130C507BE033E080F390021A80096
:100620003508C5000A30C502BF0A0318122B0A306C
:10063000C507BF033F080F390021AB000130C502D9
:10064000C00A03181E2B0130C507C00340080F392C
:100650000021AA003608C5000A30C502C10A0318E5
:100660002C2B0A30C507C10341080F390021AD000A
:100670000130C502C20A0318382B0130C507C20376
:1006800042080F390021AC002708C5000A30C50216
:10069000C30A0318462B0A30C507C30343080F39A2
:1006A0000021AF000130C502C40A0318522B0130EB
:1006B000C507C40344080F390021AE000800A21E7C
:1006C0008D2B861E8D2BA3186C2B2319742BA3192D
:1006D0007C2B231A842B8A2B8813061008173708C3
:1006E000BA002315A3108A2B0813061088173808A0
:1006F000BB00A31523118A2B08138813061439088D
:10070000BC002316A3118A2B081788170614A316FA
:1007100023128A2BA2122213A213221FBC2B061F04
:10072000BC2B23199A2BA319A22B231AAA2BA31A89
:10073000B22BB92BBA0A15303A0203190A30031941
:10074000BA00B92BBB0A15303B0203190A30031952
:10075000BB00B92BBC0A15303C0203190A3003193F
:10076000BC00B92B081388130610A314A312251676
:10077000A516A2122213A213A21FE92B861FE92B92
:100780002319C92BA319D12B231AD92BA31AE12B77
:10079000B92BBA0309303A02031914300319BA000D
:1007A000B92BBB0309303B02031914300319BB00FA
:1007B000B92BBC0309303C02031914300319BC00E7
:1007C000B92B081388130610A314A312A212221324
:0407D000A213080068
:04400E00D430FF3F6C
:00000001FF
