:060000000A128A11142906
:10000800A000030EA1000B1812280B191A280B11B7
:100018000B10210E8300A00E200E0900861EA216CA
:10002800061F2217861FA2170B1007282314B00AD1
:0C003800B10AB20AF63081000B11072853
:100200008A010A140F3982073F3406345B344F34B5
:1002100066346D347D3407347F34673477347C340E
:1002200039345E3479347134031383160F168F1604
:100230000F13811281110114811001150313831210
:10024000A8308B008101FA308100031783168801E2
:1002500089010313831600308500061000308700E3
:1002600000308800003089000313831681131517AE
:1002700095170313831696161617961703138312F2
:1002800085018601870188018901A301A601A401D6
:10029000A701A801A901AC01AD01AE01AF01B001F8
:1002A000B101B301B401B501B601B701B801B9019B
:1002B000BA01BB01BC01B201BD01BE01BF01C00159
:1002C000C101C201A201C501A501061C000026143E
:1002D000A5152514A3140A30B7000D30B80011304D
:1002E000B90073224923792192216F222318882A89
:1002F0007129A318842923198529A3198829231A68
:100300008B29A31A8E29912991293A08A7009129AE
:100310003B08A70091293C08A70091290130A700BC
:1003200091290800251A592A003034020319A129FD
:10033000003035020319A129003036020319A12922
:10034000A2292514251CF329A518C2292519DA2963
:10035000A519AA2908110810881008110814881175
:100360000812881288160910891009110915370812
:10037000B4003708B50038083707B600A511A51432
:100380002510F32988128811081288128815081080
:100390008810081108150910891009110915380865
:1003A0003907B4003808B5003808B600A51025157F
:1003B0002510F329091109108910091109140810D1
:1003C0008810081108158811081288128816390833
:1003D000B40039083707B5003908B6002511A5154E
:1003E0002510F3296E2AA518FC2925191B2AA51901
:1003F0003A2A251A592A6E2AA418B403A418B50358
:10040000A418B6030630340203192414241C112A3C
:10041000241D112A081C102A08180E2A0810112A57
:10042000081403303402031D6E2A241008108810AB
:10043000081188146E2AA418B403A418B503A418CC
:10044000B6030630350203192414241C302A241D57
:10045000302A88192D2A881D2F2A8811302A8815BC
:1004600003303502031D6E2A2410881108128812E9
:1004700008166E2AA418B403A418B503A418B6036A
:100480000630360203192414241C4F2A241D4F2A37
:1004900009184C2A091C4E2A09104F2A0914033046
:1004A0003602031D6E2A24100910891009118914BF
:1004B0006E2A241D662A09195F2A091D632A08115C
:1004C00088120911662A081588160915B401B501A4
:1004D000B601A41D6E2A2512A51525140800A41026
:1004E000A41124110800C8303102031D792AA41474
:1004F000B10164303002031D7F2A2415B001A41815
:10050000B30A03303302031D872AA415B301080080
:100510002310D8228501A61BA02A2618A72AA618D0
:10052000AE2A2619B52AA619BC2A261AC32AA31C44
:100530009B2AA6177129A61ACA2A261BD12A712915
:100540002808850001308700A61326147129290880
:100550008500023087002610A61471292A0885001C
:1005600004308700A610261571292B088500083055
:1005700087002611A61571292C08850010308700E8
:10058000A611261671292D08850020308700261215
:10059000A61671292E08850040308700A61226175E
:1005A00071292F088500803087002613A61771292E
:1005B000BD01BE01BF01C001C101C201C301C4012F
:1005C0003408C5000A30C502BD0A0318E22A0A3001
:1005D000C507BD033D080F390021A9000130C50240
:1005E000BE0A0318EE2A0130C507BE033E080F39C4
:1005F0000021A8003508C5000A30C502BF0A03184B
:10060000FC2A0A30C507BF033F080F390021AB00A1
:100610000130C502C00A0318082B0130C507C0030A
:1006200040080F390021AA003608C5000A30C5026B
:10063000C10A0318162B0A30C507C10341080F3938
:100640000021AD000130C502C20A0318222B01307F
:10065000C507C20342080F390021AC002708C500B6
:100660000A30C502C30A0318302B0A30C507C3037A
:1006700043080F390021AF000130C502C40A031836
:100680003C2B0130C507C40344080F390021AE00DC
:100690000800A21E772B861E772BA318562B231932
:1006A0005E2BA319662B231A6E2B742B881306104E
:1006B00008173708BA002315A310742B0813061067
:1006C00088173808BB00A3152311742B081388134F
:1006D00006143908BC002316A311742B08138813C1
:1006E0000610A3162312742BA2122213A213221F88
:1006F000B72B061FB72B2319842BA3198C2B231A76
:10070000942BA31A9C2BB42BBA0A15303A02031966
:100710000A300319BA00B42BBB0A15303B02031987
:100720000A300319BB00B42BBC0A15303C02031974
:100730000A300319BC00B42B3A08B7003B08B800D4
:100740003C08B900A314A3122516A5102511A51164
:10075000B301B101B0010810881008118811081206
:100760008812091089100911A2122213A213A21FC4
:10077000E12B861FE12B2319C42BA319CC2B231AA1
:10078000D42BA31ADC2BB42BBA0309303A02031979
:1007900014300319BA00B42BBB0309303B02031910
:1007A00014300319BB00B42BBC0309303C020319FD
:1007B00014300319BC00B42BA314A312A2122213E9
:0407C000A213080078
:04400E00D430FF3F6C
:00000001FF
