:060000000A128A11142906
:10000800F000030EF1000B1812280B1918280B1119
:100018000B10710E8300F00E700E0900061FF50A12
:10002800861FF5030B1007287214FD0AF6308100AD
:040038000B11072879
:100200008A010A140F3982073F3406345B344F34B5
:1002100066346D347D3407347F34673477347C340E
:1002200039345E3479347134031383160F168F1604
:100230000F13811281110114811001150313831210
:10024000A8308B008101F6308100031783168801E6
:100250008901031383160030850000308700C03009
:100260008800003089000313831681131517951732
:100270000313831696161617961703138312850118
:100280008601870188018901F201F401F301F5017A
:10029000F601F901FA01FB01FC01FD01061C000059
:1002A0007414731475080021F60002300021F70061
:1002B000F80003300021F900FA0004300021FB00AF
:1002C000FC007218642952297210672168290800FD
:1002D0008501870174188229F418892974199029D5
:1002E000F4199729741A9E29F41AA529741BAC29AC
:1002F000F41B7B2952297508850001308700F4130F
:100300007414522976088500023087007410F414A2
:1003100052297708850004308700F410741552299B
:1003200078088500083087007411F415522979087F
:10033000850010308700F411741652297A08850060
:10034000203087007412F41652297B088500403053
:100350008700F412741752297C08850080308700CA
:060360007413F41752298A
:04400E00D430FF3F6C
:00000001FF
