:060000000A128A11142906
:10000800F000030EF1000B180B190B110B10710EF9
:080018008300F00E700E0900D8
:100200008A010A140F3982073F3406345B344F34B5
:1002100066346D347D3407347F34673477347C340E
:1002200039345E3479347134031383160F128F120C
:100230000F1781128111011081140115F630810010
:1002400003138316811315149514031383161614C0
:0E0250009614031383120608061C00002E29C4
:04400E00D430FF3F6C
:00000001FF
