:060000000A128A11142906
:10000800A000030EA1000B1812280B191A280B11B7
:100018000B10210E8300A00E200E0900861EA216CA
:10002800061F2217861FA2170B1007282314AF0AD2
:0C003800B00AB30AF63081000B11072853
:100200008A010A140F3982073F3406345B344F34B5
:1002100066346D347D3407347F34673477347C340E
:1002200039345E3479347134031383160F168F1604
:100230000F13811281110114811001150313831210
:10024000A8308B008101F6308100031783168801E6
:100250008901031383160030850000308700C03009
:100260008800003089000313831681131517951732
:100270000313831696161617961703138312850118
:100280008601870188018901A301A601A401A701B4
:10029000A801AB01AC01AD01AE01AF01B001B101EC
:1002A000B201B401B501B601B701B801B901B3019A
:1002B000BA01BB01BC01BD01BE01BF01A201C00169
:1002C000A501061C000026140730B700B800B900CD
:1002D000A5142514D52211227221B8212922231810
:1002E000262A6A29251C7A293708B4003808B5005F
:1002F0003908B600A518812925199329A519A5291A
:10030000B72925102A22C8303302031D8B29B403D4
:10031000B503B603B30106303402031DB729B1019A
:10032000B201A417B72925104A22C8303302031D91
:100330008B29B403B503B603B30106303502031DA0
:10034000B729B101B201A417B72925106A22C83014
:100350003302031DAF29B403B503B603B30106305E
:100360003602031DB729B101B201A417B72908004D
:10037000A4102411A4110800BA01BB01BC01BD01E5
:10038000BE01BF013408C0000A30C002BA0A031817
:10039000C4290A30C007BA033A080F390021A8005F
:1003A0000130C002BB0A0318D0290130C007BB03CB
:1003B0003B080F390021A7003508C0000A30C002F1
:1003C000BC0A0318DE290A30C007BC033C080F39F9
:1003D0000021AA000130C002BD0A0318EA29013039
:1003E000C007BD033D080F390021A9003608C00031
:1003F0000A30C002BE0A0318F8290A30C007BE033B
:100400003E080F390021AC000130C002BF0A0318BA
:10041000042A0130C007BF033F080F390021AB0099
:100420000800C8303002031D252AA414B001B10A07
:1004300003303102031D252A2415B101B20A02300E
:100440003202031D252AA415B20108002310BC2185
:100450008A2A0800A41F492A24193B2A241A412A5F
:1004600064302F0203190814C8302F020319081032
:100470000319AF01492A08100810881008118814C0
:100480002416A41D492A2412A4138810A51025158A
:1004900025140800A41F692A24195B2AA41A612ABA
:1004A00064302F0203198815C8302F0203198811F0
:1004B0000319AF01692A88118811081288120816D9
:1004C000A416A41D692AA412A41308122511A515A7
:1004D00025140800A41F892A24197B2A241B812A99
:1004E00064302F0203190914C8302F0203190910B0
:1004F0000319AF01892A09100910891009118914FB
:100500002417A41D892A2413A4138910A511A51446
:1005100025140800850187012618A42AA618AB2AED
:100520002619B22AA619B92A261AC02AA61AC72A33
:10053000261BCE2AA61B9D2A6A2927088500013082
:100540008700A61326146A29280885000230870030
:100550002610A6146A292908850004308700A610F1
:1005600026156A292A088500083087002611A61555
:100570006A292B08850010308700A61126166A29E3
:100580002C088500203087002612A6166A292D081F
:10059000850040308700A61226176A292E0885009C
:1005A000803087002613A6176A29A21EDA2AB10115
:1005B000B201A417221FDC2AA21FDE2AA2122213D4
:0405C000A21308007A
:04400E00D430FF3F6C
:00000001FF
