:060000000A128A11142906
:10000800A000030EA1000B1812280B191A280B11B7
:100018000B10210E8300A00E200E0900861EA216CA
:10002800061F2217861FA2170B1007282314B00AD1
:0C003800B10AB20AF63081000B11072853
:100200008A010A140F3982073F3406345B344F34B5
:1002100066346D347D3407347F34673477347C340E
:1002200039345E3479347134031383160F168F1604
:100230000F13811281110114811001150313831210
:10024000A8308B008101F6308100031783168801E6
:100250008901031383160030850000308700C03009
:100260008800003089000313831681131517951732
:100270000313831696161617961703138312850118
:100280008601870188018901A301A601A401A701B4
:10029000A801A901AC01AD01AE01AF01B001B101EE
:1002A000B301B401B501B601B701B801B201B9019A
:1002B000BA01BB01BC01BD01BE01A201C101A50182
:1002C000061C00002614A51425140A30B600B70039
:1002D000B800B300B400B500081088100811081465
:1002E000A314DB21241D7B29081C7A2908187829EE
:1002F00008107B290814A9228121D8212318E82974
:100300007029251CCB29A518892925199F29A519EC
:10031000B52908110810881008110814881108124E
:100320008812881609108910091109153608B300BA
:100330003608B40037083607B5002510CB298812D7
:1003400088110812881288150810881008110815DD
:10035000091089100911091537083807B300370843
:10036000B4003708B5002510CB29091109108910F0
:1003700009110914081088100811081588110812AD
:10038000881288163808B30038083607B4003808D1
:10039000B5002510CB29A518D4292519D529A519CB
:1003A000D629251AD729D729D729D729D729080007
:1003B000A41024110800C8303102031DE129A4143F
:1003C000B10164303002031DE7292415B001080093
:1003D000231038228501A61B002A2618072AA618F2
:1003E0000E2A2619152AA6191C2A261A232AA31C06
:1003F000FB29A6177029A61A2A2A261B312A70293A
:100400002808850001308700A613261470292908C2
:100410008500023087002610A61470292A0885005E
:1004200004308700A610261570292B088500083097
:1004300087002611A61570292C088500103087002A
:10044000A611261670292D08850020308700261257
:10045000A61670292E08850040308700A6122617A0
:1004600070292F088500803087002613A617702971
:10047000B901BA01BB01BC01BD01BE01BF01C00190
:100480003308C1000A30C102B90A0318422A0A30EF
:10049000C107B90339080F390021A9000130C10291
:1004A000BA0A03184E2A0130C107BA033A080F39B5
:1004B0000021A8003408C1000A30C102BB0A031899
:1004C0005C2A0A30C107BB033B080F390021AB008F
:1004D0000130C102BC0A0318682A0130C107BC03FD
:1004E0003C080F390021AA003508C1000A30C102BA
:1004F000BD0A0318762A0A30C107BD033D080F392B
:100500000021AD000130C102BE0A0318822A013069
:10051000C107BE033E080F390021AC002708C10007
:100520000A30C102BF0A0318902A0A30C107BF036C
:100530003F080F390021AF000130C102C00A031883
:100540009C2A0130C107C00340080F390021AE00CA
:040550000800080097
:04400E00D430FF3F6C
:00000001FF
