:060000000A128A11142906
:10000800A000030EA1000B1812280B191A280B11B7
:100018000B10210E8300A00E200E0900861EA216CA
:10002800061F2217861FA2170B1007282314AF0AD2
:0C003800B00AB10AF63081000B11072855
:100200008A010A140F3982073F3406345B344F34B5
:1002100066346D347D3407347F34673477347C340E
:1002200039345E3479347134031383160F168F1604
:100230000F13811281110114811001150313831210
:10024000A8308B008101F6308100031783168801E6
:1002500089010313831600308500061000308700E3
:1002600000308800003089000313831681131517AE
:1002700095170313831696161617961703138312F2
:1002800085018601870188018901A301A601A401D6
:10029000B901A701A801AB01AC01AD01AE01AF01ED
:1002A000B001B201B301B401B501B601B701B801A3
:1002B000BA01BB01BC01B101BD01BE01BF01C0015A
:1002C000C101C201A201C501A501061C000026143E
:1002D000A5152514A3140A30B600B700B8008F2264
:1002E0006523772190218B222318A42A6F29A31834
:1002F000822923198329A3198629231A8929A31A54
:100300008C298F298F293A08B9008F293B08B90019
:100310008F293C08B9008F290030B9008F290800C7
:100320000030330203199D290030340203199D293E
:100330000030350203199D299E292514251CF12919
:10034000251A5D2AA518C0292519D829A519A82973
:100350000811081088100811081488110812881252
:10036000881609108910091109153608B3003608D6
:10037000B40037083607B500A511A5142510F129DA
:100380008812881108128812881508108810081120
:100390000815091089100911091537083807B30025
:1003A0003708B4003708B500A51025152510F12928
:1003B0000911091089100911091408108810081171
:1003C000081588110812881288163808B3003808F2
:1003D0003607B4003808B5002511A5152510F129F8
:1003E0008A2AA518FA2925191B2AA5193C2A251A93
:1003F0005D2A8A2AA418B303A418B403A418B50369
:100400000630330203192414241C0F2A241D0F2A3A
:10041000081C0E2A08180C2A08100F2A081403308A
:100420003302031D8A2A241C8A2A241008108810EB
:10043000081188148A2AA418B303A418B403A418B2
:10044000B5030630340203192414241C302A241D59
:10045000302A88192D2A881D2F2A8811302A8815BC
:1004600003303402031D8A2A241C8A2A241088118E
:100470000812881208168A2AA418B303A418B40311
:10048000A418B5030630350203192414241C512A7C
:10049000241D512A09184E2A091C502A0910512AD4
:1004A000091403303502031D8A2A241C8A2A2410C9
:1004B00009108910091189148A2AA51E762A3A087A
:1004C000B6003B08B7003C08B800A5102511A511DF
:1004D000A5122514B201B001AF010810881008114F
:1004E000881108128812091089100911241D832A05
:1004F00009197C2A091D802A081188120911832AEA
:10050000081588160915B301B401B501A41D8A2A7E
:100510002512A5150800A410A41124110800C83044
:100520003002031D952AA414B00164302F02031D6C
:100530009B2A2415AF01A418B20A03303202031D0E
:10054000A32AA415B20108002310F4228501A61BDA
:10055000BC2A2618C32AA618CA2A2619D12AA619DF
:10056000D82A261ADF2AA31CB72AA6176F29A61A8B
:10057000E62A261BED2A6F2927088500013087000F
:10058000A61326146F29280885000230870026103C
:10059000A6146F292908850004308700A6102615A7
:1005A0006F292A088500083087002611A6156F29B3
:1005B0002B08850010308700A61126166F292C08FD
:1005C0008500203087002612A6166F292D08850089
:1005D00040308700A61226176F292E08850080302C
:1005E00087002613A6176F29BD01BE01BF01C001F8
:1005F000C101C201C301C4013308C5000A30C502EC
:10060000BD0A0318FE2A0A30C507BD033D080F398D
:100610000021A8000130C502BE0A03180A2B0130D0
:10062000C507BE033E080F390021A7003408C500E6
:100630000A30C502BF0A0318182B0A30C507BF03CA
:100640003F080F390021AA000130C502C00A031873
:10065000242B0130C507C00340080F390021A90031
:100660003508C5000A30C502C10A0318322B0A300A
:10067000C507C10341080F390021AC000130C50294
:10068000C20A03183E2B0130C507C20342080F39C6
:100690000021AB003908C5000A30C502C30A03189F
:1006A0004C2B0A30C507C30343080F390021AE00A5
:1006B0000130C502C40A0318582B0130C507C40312
:1006C00044080F390021AD000800A21E932B861E9E
:1006D000932BA318722B23197A2BA319822B231A7D
:1006E0008A2B902B8813061008173608BA0023159A
:1006F000A310902B0813061088173708BB00A3150A
:100700002311902B0813881306143808BC002316F5
:10071000A311902B081788170614A3162312902BE9
:10072000A2122213A213221FC22B061FC22B2319AF
:10073000A02BA319A82B231AB02BA31AB82BBF2BBD
:10074000BA0A15303A0203190A300319BA00BF2B4E
:10075000BB0A15303B0203190A300319BB00BF2B3B
:10076000BC0A15303C0203190A300319BC00BF2B28
:10077000081388130610A314A3122516A516A21297
:100780002213A213A21FEF2B861FEF2B2319CF2BAF
:10079000A319D72B231ADF2BA31AE72BBF2BBA03DE
:1007A00009303A02031914300319BA00BF2BBB03F6
:1007B00009303B02031914300319BB00BF2BBC03E3
:1007C00009303C02031914300319BC00BF2B081375
:1007D00088130610A314A312A2122213A213080056
:04400E00D430FF3F6C
:00000001FF
