:060000000A128A11142906
:10000800A000030EA1000B1812280B191A280B11B7
:100018000B10210E8300A00E200E0900861EA216CA
:10002800061F2217861FA2170B1007282314AF0AD2
:0C003800B00AB30AF63081000B11072853
:100200008A010A140F3982073F3406345B344F34B5
:1002100066346D347D3407347F34673477347C340E
:1002200039345E3479347134031383160F168F1604
:100230000F13811281110114811001150313831210
:10024000A8308B008101F6308100031783168801E6
:100250008901031383160030850000308700C03009
:100260008800003089000313831681131517951732
:100270000313831696161617961703138312850118
:100280008601870188018901A301A601A401A701B4
:10029000A801AB01AC01AD01AE01AF01B001B101EC
:1002A000B201B401B501B601B301B701B801B9019A
:1002B000BA01BB01BC01A201BD01A501061C0000E1
:1002C00026140730B400B500B6002514A722D721A4
:1002D0006E217E21EF212318EC296529F021C830F9
:1002E00033020319B40B0319B30106303402031DA2
:1002F0007D29B101B201A4177D290800A4102411A1
:10030000A4110800B701B801B901BA01BB01BC01D1
:100310003408BD000A30BD02B70A03188A290A3022
:10032000BD07B70337080F390021A8000130BD020F
:10033000B80A031896290130BD07B80338080F39E9
:100340000021A7003508BD000A30BD02B90A031814
:10035000A4290A30BD07B90339080F390021AA00C2
:100360000130BD02BA0A0318B0290130BD07BA0333
:100370003A080F390021A9003608BD000A30BD0235
:10038000BB0A0318BE290A30BD07BB033B080F395F
:100390000021AC000130BD02BC0A0318CA2901309B
:1003A000BD07BC033C080F390021AB000800C83072
:1003B0003002031DEB29A414B001B10A033031024D
:1003C000031DEB292415B101B20A02303202031DCC
:1003D000EB29A415B2010800231082215C2A080031
:1003E000A41F132A2419012A241A052A64302F0273
:1003F00003190814C8302F02031908100319AF019C
:10040000132A081088100811241664302F020319CB
:100410008814C8302F02031988100319AF01A419DA
:100420002412A419A4130800A41F372A2419252A6A
:10043000A41A292A64302F0203198815C8302F0204
:10044000031988110319AF01372A8811081288127D
:10045000A41664302F0203190816C8302F0203199E
:1004600008120319AF01A419A412A419A4130800B7
:10047000A41F5B2A2419492A241B4D2A64302F0209
:1004800003190914C8302F02031909100319AF0109
:100490005B2A091089100911241764302F020319EF
:1004A0008914C8302F02031989100319AF01A41948
:1004B0002413A419A4130800850187012618762A9D
:1004C000A6187D2A2619842AA6198B2A261A922A6A
:1004D000A61A992A261BA02AA61B6F2A6529270877
:1004E000850001308700A613261465292808850099
:1004F000023087002610A6146529290885000430DB
:100500008700A610261565292A088500083087006F
:100510002611A61565292B08850010308700A61125
:10052000261665292C088500203087002612A6167D
:1005300065292D08850040308700A61226176529F9
:100540002E088500803087002613A6176529A21E75
:10055000AC2AB101B201A417221FAE2AA21FB02AF1
:08056000A2122213A2130800ED
:04400E00D430FF3F6C
:00000001FF
