:060000000A128A11142906
:10000800F000030EF1000B1812280B1918280B1119
:100018000B10710E8300F00E700E0900061FF50A12
:10002800861FF5030B1007287214F63081000B1198
:02003800072897
:100200008A010A140F3982073F3406345B344F34B5
:1002100066346D347D3407347F34673477347C340E
:1002200039345E3479347134031383160F168F1604
:100230000F13811281110114811001150313831210
:10024000A8308B008101F6308100031783168801E6
:100250008901031383160030850000308700C03009
:100260008800003089000313831681131517951732
:100270000313831696161617961703138312850118
:100280008601870188018901F201F401F301F5017A
:10029000F601F901FA01FB01FC01FD01061C000059
:1002A0007414731475080021F60002300021F70061
:1002B000F80003300021F900FA0004300021FB00AF
:1002C000FC00721864295229721066290130FD0061
:1002D0008F077D180814FD1888157D190914023040
:1002E000FD008F077D188814FD1808167D198914E4
:1002F0000430FD008F077D180815FD1888167D193C
:10030000091582298501870174189C29F418A329ED
:100310007419AA29F419B129741AB829F41ABF2931
:10032000741BC629F41B95295229750885000130D4
:100330008700F41374145229760885000230870070
:100340007410F41452297708850004308700F410E3
:100350007415522978088500083087007411F41547
:1003600052297908850010308700F411741652293B
:100370007A088500203087007412F41652297B0811
:10038000850040308700F412741752297C088500DC
:0A039000803087007413F41752291F
:04400E00D430FF3F6C
:00000001FF
