:060000000A128A11142906
:10000800F000030EF1000B1814280B191A28091414
:100018000B110B10710E8300F00E700E09140900FD
:10002800061FF50A861FF5030B1007287214F63011
:0600380081000B110728F6
:100200008A010A140F3982073F3406345B344F34B5
:1002100066346D347D3407347F34673477347C340E
:1002200039345E3479347134031383160F168F1604
:100230000F13811281110114811001150313831210
:10024000A8308B008101F6308100031783168801E6
:100250008901031383160030850000308700C03009
:100260008800003089000313831681131517951732
:100270000313831696161617961703138312850118
:100280008601870188018901F201F401F301F5017A
:10029000F601F901FA01FB01FC01061C00007414CF
:1002A000731475080021F60002300021F700F800F1
:1002B00003300021F900FA0004300021FB00FC00AB
:1002C00072186329512972106529850187017418F4
:1002D0007F29F418862974198D29F4199429741A20
:1002E0009B29F41AA229741BA929F41B78295129E6
:1002F0007508850001308700F413741451297608BD
:100300008500023087007410F414512977088500A5
:1003100004308700F41074155129780885000830DE
:1003200087007411F4155129790885001030870071
:10033000F411741651297A08850020308700741250
:10034000F41651297B08850040308700F412741799
:1003500051297C088500803087007413F4175129D7
:04400E00D430FF3F6C
:00000001FF
