:060000000A128A11142906
:10000800F000030EF1000B1813280B191928091416
:100018000B110B10710E8300F00E700E0900061FF5
:100028000000861F00000B1007287214F6308100AC
:040038000B11072879
:100200008A010A140F3982073F3406345B344F34B5
:1002100066346D347D3407347F34673477347C340E
:1002200039345E3479347134031383160F128F120C
:100230000F1781128111011081140115031383120C
:10024000A8308B008101F6308100031783168801E6
:100250008901031383160030850000308700F830D1
:100260008800003089000313831681131517951732
:100270000313831696161617961703138312850118
:100280008601870188018901F201F301F401F5017A
:10029000F801F901FA01FB01061C00007314033098
:1002A0000021F400FB00721856294F2985018701AF
:1002B0000914721073187229F31879297319802997
:1002C000F3198729731A8E29F31A9529731B9C2910
:1002D000F31B6B294F297408850001308700F31345
:1002E00073144F2975088500023087007310F314CA
:1002F0004F297608850004308700F31073154F29C5
:1003000077088500083087007311F3154F297808A6
:10031000850010308700F31173164F297908850086
:10032000103087007312F3164F297A0885002030A9
:100330008700F31273174F297B0885004030870030
:060340007313F3174F29AF
:04400E00D430FF3F6C
:00000001FF
