:060000000A128A11142906
:10000800A000030EA1000B1812280B1918280B11B9
:100018000B10210E8300A00E200E0900061FA50A52
:10002800861FA5030B1007282214AD0AAE0AF63066
:0600380081000B110728F6
:100200008A010A140F3982073F3406345B344F34B5
:1002100066346D347D3407347F34673477347C340E
:1002200039345E3479347134031383160F168F1604
:100230000F13811281110114811001150313831210
:10024000A8308B008101F6308100031783168801E6
:100250008901031383160030850000308700C03009
:100260008800003089000313831681131517951732
:100270000313831696161617961703138312850118
:100280008601870188018901A201A401A301A501BA
:10029000A601A901AA01AB01AC01AD01AE01AF01FC
:1002A000B001061C0000241425080021A60002301D
:1002B0000021A700A80003300021A900AA000430F3
:1002C0000021AB00AC00A3102311A3116A21221856
:1002D0007F295429C8302E02031D7E29A314AE01A4
:1002E000AF0A03302F02031D7E292315AF01B00A88
:1002F00002303002031D7E29A315B0010800221030
:100300008221912964302D0203190816C8302D026C
:1003100003190812C8302D020319AD0190210800FD
:100320000800850187012418AB29A418B2292419D3
:10033000B929A419C029241AC729A41ACE29241B13
:10034000D529A41BA429542925088500013087003C
:10035000A413241454292608850002308700241091
:10036000A41454292708850004308700A4102415FC
:10037000542928088500083087002411A415542921
:100380002908850010308700A411241654292A0852
:100390008500203087002412A41654292B088500DC
:1003A00040308700A412241754292C08850080307F
:0803B00087002413A41754294F
:04400E00D430FF3F6C
:00000001FF
