:060000000A128A11142906
:10000800A000030EA1000B1812280B191A280B11B7
:100018000B10210E8300A00E200E0900861EA216CA
:10002800061F2217861FA2170B1007282314AF0AD2
:0C003800B00AB30AF63081000B11072853
:100200008A010A140F3982073F3406345B344F34B5
:1002100066346D347D3407347F34673477347C340E
:1002200039345E3479347134031383160F168F1604
:100230000F13811281110114811001150313831210
:10024000A8308B008101F6308100031783168801E6
:100250008901031383160030850000308700C03009
:100260008800003089000313831681131517951732
:100270000313831696161617961703138312850118
:100280008601870188018901A301A601A401A701B4
:10029000A801AB01AC01AD01AE01AF01B001B101EC
:1002A000B201B401B501B601B701B801B901B3019A
:1002B000BA01BB01BC01BD01BE01BF01A201C00169
:1002C000A501061C000026140A30B700B800B900CA
:1002D000A514251625141A2353227321FA216B2203
:1002E0002318682A6B29251CB929251E8C29081179
:1002F000081088100811081488110812881288162E
:1003000009108910091109153708B4003708B5001C
:1003100038083707B600B9298812881108128812E0
:10032000881508108810081108150910891009117E
:100330000915A51EA32938083907B4003808B500E7
:100340003808B600B929251FB929091109108910E3
:1003500009110914081088100811081588110812CD
:10036000881288163908B40039083707B5003908EB
:10037000B600A518C0292519D329A519E629F929F8
:10038000251225106C22C8303302031DCB29B4037B
:10039000B503B603B30106303402031DF929B101D8
:1003A000B201A417F929A51225108D22C8303302F5
:1003B000031DDE29B403B503B603B30106303502CD
:1003C000031DF929B101B201A417F929251325103C
:1003D000AE22C8303302031DF129B403B503B603BE
:1003E000B30106303602031DF929B101B201A41789
:1003F000F9290800A4102411A4110800BA01BB01B6
:10040000BC01BD01BE01BF013408C0000A30C002FA
:10041000BA0A0318062A0A30C007BA033A080F3985
:100420000021A8000130C002BB0A0318122A0130C3
:10043000C007BB033B080F390021A7003508C000E7
:100440000A30C002BC0A0318202A0A30C007BC03C5
:100450003C080F390021AA000130C002BD0A031870
:100460002C2A0130C007BD033D080F390021A90027
:100470003608C0000A30C002BE0A03183A2A0A3001
:10048000C007BE033E080F390021AC000130C00296
:10049000BF0A0318462A0130C007BF033F080F39BF
:1004A0000021AB000800C8303002031D672AA414E5
:1004B000B001B10A03303102031D672A2415B101CE
:1004C000B20A02303202031D672AA415B2010800E5
:1004D0002310FE21CF2A0800A41F8C2A24197D2A6C
:1004E000241A832A64302F0203190814C8302F02FB
:1004F000031908100319AF018C2A0810081088107E
:10050000081188142416A41D8C2A2412A413881000
:10051000A51025152514A5160800A41FAD2A241919
:100520009E2AA41AA42A64302F0203198815C83001
:100530002F02031988110319AF01AD2A8811881100
:10054000081288120816A416A41DAD2AA412A4131A
:1005500008122511A515251425170800A41FCE2A59
:100560002419BF2A241BC52A64302F020319091439
:10057000C8302F02031909100319AF01CE2A091040
:1005800009108910091189142417A41DCE2A2413D7
:10059000A4138910A511A51425142516080085019A
:1005A00087012618E92AA618F02A2619F72AA6197B
:1005B000FE2A261A052BA61A0C2B261B132BA61B6C
:1005C000E22A6B292708850001308700A61326142C
:1005D0006B2928088500023087002610A6146B2995
:1005E0002908850004308700A61026156B292A08E3
:1005F0008500083087002611A6156B292B08850079
:1006000010308700A61126166B292C088500203093
:1006100087002612A6166B292D088500403087001A
:10062000A61226176B292E08850080308700261316
:10063000A6176B29A21E1F2BB101B201A417221FFE
:0E064000212BA21F232BA2122213A2130800AB
:04400E00D430FF3F6C
:00000001FF
