:060000000A128A11142906
:10000800A000030EA1000B1812280B191A280B11B7
:100018000B10210E8300A00E200E0900861EA216CA
:10002800061F2217861FA2170B1007282314B00AD1
:0C003800B10AB20AF63081000B11072853
:100200008A010A140F3982073F3406345B344F34B5
:1002100066346D347D3407347F34673477347C340E
:1002200039345E3479347134031383160F168F1604
:100230000F13811281110114811001150313831210
:10024000A8308B008101FA308100031783168801E2
:1002500089010313831600308500061000308700E3
:1002600000308800003089000313831681131517AE
:1002700095170313831696161617961703138312F2
:1002800085018601870188018901A301A601A401D6
:10029000A701A801A901AC01AD01AE01AF01B001F8
:1002A000B101B301B401B501B601B701B801B9019B
:1002B000BA01BB01BC01B201BD01BE01BF01C00159
:1002C000C101C201A201C501A501061C000026143E
:1002D000A5152514A3140A30B700B800B9007B2275
:1002E00051237721902177222318902A6F29A31870
:1002F000822923198329A3198629231A8929A31A54
:100300008C298F298F293A08A7008F293B08A7003D
:100310008F293C08A7008F290030A7008F290800EB
:10032000251A572A0030340203199F29003035025C
:1003300003199F290030360203199F29A02925148B
:10034000251CF129A518C0292519D829A519A829DE
:100350000811081088100811081488110812881252
:10036000881609108910091109153708B4003708D3
:10037000B50038083707B600A511A5142510F129D6
:100380008812881108128812881508108810081120
:100390000815091089100911091538083907B40022
:1003A0003808B5003808B600A51025152510F12924
:1003B0000911091089100911091408108810081171
:1003C000081588110812881288163908B4003908EF
:1003D0003707B5003908B6002511A5152510F129F4
:1003E000762AA518FA292519192AA519382A251AAD
:1003F000572A762AA418B403A418B503A418B60380
:100400000630340203192414241C0F2A241D0F2A39
:10041000081C0E2A08180C2A08100F2A081403308A
:100420003402031D762A241008108810081188143D
:10043000762AA418B403A418B503A418B60306308A
:10044000350203192414241C2E2A241D2E2A88194F
:100450002B2A881D2D2A88112E2A88150330350253
:10046000031D762A24108811081288120816762A8D
:10047000A418B403A418B503A418B60306303602B2
:1004800003192414241C4D2A241D4D2A09184A2A14
:10049000091C4C2A09104D2A091403303602031D89
:1004A000762A24100910891009118914762A241D2E
:1004B000642A09195D2A091D612A08118812091187
:1004C000642A0815881609153A08B7003B08B800D1
:1004D0003C08B900A5102511A5112514B401B501DA
:1004E000B601A41D762A2512A51525140800A4100E
:1004F000A41124110800C8303102031D812AA4145C
:10050000B10164303002031D872A2415B001A418FC
:10051000B30A03303302031D8F2AA415B301080068
:100520002310E0228501A61BA82A2618AF2AA618A8
:10053000B62A2619BD2AA619C42A261ACB2AA31C14
:10054000A32AA6176F29A61AD22A261BD92A6F29F1
:100550002808850001308700A61326146F29290872
:100560008500023087002610A6146F292A0885000E
:1005700004308700A61026156F292B088500083047
:1005800087002611A6156F292C08850010308700DA
:10059000A61126166F292D08850020308700261207
:1005A000A6166F292E08850040308700A612261750
:1005B0006F292F088500803087002613A6176F2922
:1005C000BD01BE01BF01C001C101C201C301C4011F
:1005D0003408C5000A30C502BD0A0318EA2A0A30E9
:1005E000C507BD033D080F390021A9000130C50230
:1005F000BE0A0318F62A0130C507BE033E080F39AC
:100600000021A8003508C5000A30C502BF0A03183A
:10061000042B0A30C507BF033F080F390021AB0088
:100620000130C502C00A0318102B0130C507C003F2
:1006300040080F390021AA003608C5000A30C5025B
:10064000C10A03181E2B0A30C507C10341080F3920
:100650000021AD000130C502C20A03182A2B013067
:10066000C507C20342080F390021AC002708C500A6
:100670000A30C502C30A0318382B0A30C507C30362
:1006800043080F390021AF000130C502C40A031826
:10069000442B0130C507C40344080F390021AE00C4
:1006A0000800A21E892B861E892BA318682B2319EC
:1006B000702BA319782B231A802BA31A602B862B5F
:1006C0000813881306103708BA00A314A312862B48
:1006D0008813061008173708BA002315A310862BB5
:1006E0000813061088173808BB00A3152311862BA2
:1006F0000813881306143908BC002316A311862B8F
:10070000081788170614A3162312862BA212221389
:10071000A213221FC32B061FC32B2319962BA31929
:100720009E2B231AA62BA31AAE2BC02BBA0A153068
:100730003A0203190A300319BA00C02BBB0A15305C
:100740003B0203190A300319BB00C02BBC0A153049
:100750003C0203190A300319BC00C02BB301B101DC
:10076000B0010813881306100810881008118811AA
:1007700008128812091089100911A314A312251652
:10078000A2122213A213A21FF02B861FF02B2319F3
:10079000D02BA319D82B231AE02BA31AE82BC02B9C
:1007A000BA0309303A02031914300319BA00C02BF6
:1007B000BB0309303B02031914300319BB00C02BE3
:1007C000BC0309303C02031914300319BC00C02BD0
:1007D000081388130610A314A312A2122213A21343
:0207E00008000F
:04400E00D430FF3F6C
:00000001FF
